:100000000C94C7000C94EF000C94EF000C94EF00DC
:100010000C94EF000C94EF000C94EF000C94EF00A4
:100020000C94EF000C94EF000C94EF000C94431E22
:100030000C94EF000C94EF000C94EF000C94EF0084
:100040000C947B200C94EF000C94BA230C94EC23BA
:100050000C94EF000C94EF000C94EF000C94EF0064
:100060000C94EF000C94EF007F0281028302860261
:1000700083027F028602810216184B188018B51879
:10008000EA18F51829193E196019AA19AA19AA1906
:10009000AA19AA19AA19AA19AA19AA19AA19AA1948
:1000A0008319084AD73B3BCE016E84BCBFFDC12FEC
:1000B0003D6C74319ABD56833DDA3D00C77F11BE59
:1000C000D9E4BB4C3E916BAAAABE000000803F055C
:1000D000A84CCDB2D44EB93836A9020C50B991868D
:1000E00088083CA6AAAA2ABE000000803F000000A3
:1000F00000080002010000030407000000000000E7
:1001000000000102040810204080010204081020B1
:10011000010204081020040404040404040402027C
:100120000202020203030303030300000000230092
:100130002600290000000000250028002B000000F8
:100140000000240027002A004E414E494E495459D0
:10015000494E46CDCCCC3D0AD7233C17B7D1387792
:10016000CC2B329595E6241FB14F0A0000204100A8
:1001700000C84200401C4620BCBE4CCA1B0E5AAEF2
:10018000C59D7400500BCA19391E1C243F1E112432
:100190001FBECFEFD8E0DEBFCDBF13E0A0E0B1E0DF
:1001A000E6E4F0E602C005900D92A23CB107D9F753
:1001B00026E0A2ECB3E001C01D92AE35B207E1F734
:1001C00011E0CCE8D1E004C02297FE010E94102C7F
:1001D000C438D107C9F70E9460240C9416300C94DF
:1001E000000061E080912C040E94DD2161E080919B
:1001F00032040E94DD2161E0809144040E94DD21EF
:1002000062E080913E040E94DD2162E0809138042A
:100210000E94DD2161E080912E040E94DD2161E0D9
:10022000809134040E94DD2161E0809146040E94A7
:10023000DD2162E0809140040E94DD2162E0809136
:100240003A040E94DD2161E0809130040E94DD21AA
:1002500061E0809136040E94DD2161E080914804D4
:100260000E94DD2162E0809142040E94DD2162E073
:1002700080913C040C94DD2160E0809144040E9454
:10028000162260E0809146040E94162260E0809170
:1002900048040C94162261E0809144040E941622C6
:1002A00061E0809146040E94162261E0809148043A
:1002B0000C9416220F931F93CF93DF930AE414E05C
:1002C00061E0F80180810E94DD21CCE4D4E061E0AE
:1002D00088810E94DD2160E0F80180810E94162261
:1002E00060E08881DF91CF911F910F910C941622CD
:1002F00060914E0470914F0485EC93E00E94991F29
:10030000609150047091510482EC93E00C94991F19
:1003100085EC93E00E949F1F82EC93E00C949F1F5A
:1003200020914E0430914F042817390719F485ECB9
:1003300093E009C0209150043091510428173907E7
:1003400021F482EC93E00C94E01F0895BC018091AD
:100350002A0490912B048230910519F0039731F013
:10036000089580914E0490914F0404C080915004F0
:10037000909151040C949001BC0180912A049091B9
:100380002B04009719F0019771F008956F3F7105E4
:1003900019F06115710521F461E080914A040CC0E7
:1003A00080914A040DC06F3F710519F06115710508
:1003B00029F461E080914C040C94162280914C0445
:1003C0000C945521BC0180912A0490912B04009734
:1003D00019F0019759F008956115710521F460E055
:1003E00080914A0409C080914A040AC061157105D0
:1003F00029F460E080914C040C94162280914C0406
:100400000C94552120912A0430912B0437FD0AC009
:10041000223031052CF02430310524F40C94A6014F
:100420000C94BC01089520912A0430912B0437FDCF
:100430000AC0223031052CF02430310524F40C940C
:10044000A6010C94E2010895CF93C82F0E944C227C
:10045000892B31F48C2F0E944C2221E0892B09F04A
:1004600020E0822FCF910895CF92EF92FF920F93C9
:100470001F93CF93DF93EB01E216F30604071507F2
:1004800071F00E942402882311F0CC2041F0CE01AB
:100490000E942402882329F081E0CC2019F080E01A
:1004A00001C081E0DF91CF911F910F91FF90EF90FC
:1004B000CF900895EF92FF920F931F93CF93DF9306
:1004C0001F92CDB7DEB7182F062F49830E944C220A
:1004D0007C01802F0E944C22498124E0429FA00190
:1004E0001124482B592BEE0CFF1C4E295F29483054
:1004F0005105B8F4FA01EC5CFF4F0C940E2C61E04E
:1005000006C060E001C061E0802F02C060E0812F82
:100510000F90DF91CF911F910F91FF90EF900C946E
:1005200016220F90DF91CF911F910F91FF90EF90C6
:1005300008950E94D32A20E030E040E85EE30E9464
:10054000D32A0E94472922E0660F771F881F991F30
:100550002A95D1F708950F931F93CF93DF93CDB7CB
:10056000DEB72A970FB6F894DEBF0FBECDBF198253
:100570001A821B821C82FE01359696E0DF011D92D5
:100580009A95E9F790E0292F30E02417350734F5E4
:10059000FB01E20FF31F2081A1E0A90F28131CC06B
:1005A0001A2FFE0131960BE0090FCF01212F30E009
:1005B0002417350764F4101751F0260F371FD9019F
:1005C0002C91322F3F7D19F021931F5FEFCF60E018
:1005D00070E00E94332E05C09A2FD5CF60E070E006
:1005E000CB012A960FB6F894DEBF0FBECDBFDF91C8
:1005F000CF911F910F91089563E070E085E191E044
:100600000E946D1163E070E089E191E00E946D113C
:1006100063E070E08DE191E00C946D1162E170E0B7
:1006200081E291E00E946D1163E170E083E391E06B
:100630000E946D1163E170E086E491E00E946D110B
:1006400062E170E089E591E00C946D110F931F93C6
:100650004017510784F0801B910B841795075CF0BD
:100660002017310744F0601B710B81E0621773079C
:100670001CF080E001C081E01F910F910895CF939D
:10068000DF93EC0180912A0490912B04029702974A
:1006900038F0CE010297029740F40E94780105C01D
:1006A000C230D10510F40E948801D0932B04C0936E
:1006B0002A04DF91CF910895883529F470932D0491
:1006C00060932C040DC0893529F470932F04609336
:1006D0002E0406C08A3521F47093310460933004EF
:1006E0000C94F100883529F470933304609332043C
:1006F0000DC0893529F4709335046093340406C025
:100700008A3521F470933704609336040C94F10019
:10071000883529F470933904609338040DC0893505
:1007200029F470933B0460933A0406C08A3521F49F
:1007300070933D0460933C040C94F100883529F4D7
:1007400070933F0460933E040DC0893529F4709383
:1007500041046093400406C08A3521F47093430439
:10076000609342040C94F1008F7D813429F47093DE
:100770004B0460934A0406C0823421F470934D0404
:1007800060934C040C945A018F7D813429F470934A
:100790004F0460934E0406C0823421F470935104D8
:1007A000609350040C947801883549F440935204C6
:1007B00050935304609354047093550408958935FD
:1007C00049F440935604509357046093580470932F
:1007D000590408958A3541F440935A0450935B04B8
:1007E00060935C0470935D04089590936B04809310
:1007F0006A04089508950F931F93CF93DF938E3F5C
:100800002FEF9207D1F08F3FEFEF9E0731F0039665
:1008100009F057C0C0E0D0E005C000E014E0C4E03B
:10082000D0E043C040E0BE0185EF94E00E94320C6E
:100830002196C037D105B1F744C088E59FE4A2E412
:10084000B2E48093FC039093FD03A093FE03B09366
:10085000FF030CEF13E0C0E0D0E0F80141918F01FD
:10086000BE0185EF94E00E94320C2196C037D1057D
:10087000A1F74091FC035091FD036091FE0370913C
:10088000FF032AE030E08AEB95E00E949F252AE0F2
:1008900030E048E55FE462E472E48AEB95E0DF91E2
:1008A000CF911F910F910C949F25F80141918F01D9
:1008B000BE0185EF94E00E94320C2196CE32D10524
:1008C000A1F7DF91CF911F910F9108950F931F937F
:1008D000CF93DF93029669F50CEF13E0C0E0D0E010
:1008E000BE0185EF94E00E942F0CF80181938F01E7
:1008F0002196C430D105A1F78091FC039091FD03AE
:10090000A091FE03B091FF0388359F44A244B244F6
:1009100081F40CEF13E0C0E0D0E0BE0185EF94E07D
:100920000E942F0CF80181938F012196C037D105C9
:10093000A1F7DF91CF911F910F9108951092FC03C1
:100940001092FD031092FE031092FF0310922B04ED
:1009500010922A048AE090E090932D0480932C0456
:1009600089E090E090932F0480932E048FEF9FEF07
:1009700090933104809330042BE030E030933304C3
:100980002093320423E030E0309335042093340484
:10099000909337048093360420E130E0309339049B
:1009A000209338042CE030E030933B0420933A0449
:1009B00090933D0480933C0421E130E030933F0468
:1009C00020933E042DE030E0309341042093400416
:1009D000909343048093420490934504809344048D
:1009E000909347048093460490934904809348046D
:1009F00085E090E090934B0480934A0486E090E079
:100A000090934D0480934C048FE090E090934F04BA
:100A100080934E0484E190E09093510480935004BD
:100A200085E69AEFAEE2B3E48093520490935304C8
:100A3000A0935404B09355048093560490935704A4
:100A4000A0935804B093590480935A0490935B0484
:100A5000A0935C04B0935D048EE893EEAAE8B5E43D
:100A600080935E0490935F04A0936004B09361044C
:100A70008093620490936304A0936404B09365042C
:100A80008093660490936704A0936804B09369040C
:100A900088EB9BE090936B0480936A048EEF9FEF4A
:100AA0000E94660480912A0490912B04029718F406
:100AB0000E945A0102C00E9478010E94F1000C9429
:100AC0003C01029609F00EC16BE971E08AEB95E0FA
:100AD0000E94AD2460912C0470912D044AE050E0F6
:100AE0008AEB95E00E947F256DE971E08AEB95E045
:100AF0000E94AD2460912E0470912F044AE050E0D2
:100B00008AEB95E00E947F256DE971E08AEB95E024
:100B10000E94AD2460913204709133044AE050E0A9
:100B20008AEB95E00E947F256DE971E08AEB95E004
:100B30000E94AD2460913404709135044AE050E085
:100B40008AEB95E00E947F256DE971E08AEB95E0E4
:100B50000E94AD2460913E0470913F044AE050E051
:100B60008AEB95E00E947F256DE971E08AEB95E0C4
:100B70000E94AD2460914004709141044AE050E02D
:100B80008AEB95E00E947F256DE971E08AEB95E0A4
:100B90000E94AD2460913804709139044AE050E01D
:100BA0008AEB95E00E947F256DE971E08AEB95E084
:100BB0000E94AD2460913A0470913B044AE050E0F9
:100BC0008AEB95E00E947F256DE971E08AEB95E064
:100BD0000E94AD2460914A0470914B044AE050E0B9
:100BE0008AEB95E00E947F256DE971E08AEB95E044
:100BF0000E94AD2460914C0470914D044AE050E095
:100C00008AEB95E00E947F256DE971E08AEB95E023
:100C10000E94AD2460914E0470914F044AE050E070
:100C20008AEB95E00E947F256DE971E08AEB95E003
:100C30000E94AD2460915004709151044AE050E04C
:100C40008AEB95E00E947F256DE971E08AEB95E0E3
:100C50000E94AD2440915204509153046091540479
:100C60007091550422E030E08AEB95E00E94C7269F
:100C70006DE971E08AEB95E00E94AD244091560445
:100C800050915704609158047091590422E030E06B
:100C90008AEB95E00E94C7266DE971E08AEB95E04A
:100CA0000E94AD2460916A0470916B044AE050E0A8
:100CB0008AEB95E00E947F256DE971E08AEB95E073
:100CC0000E94AD2460912A0470912B044AE050E008
:100CD0008AEB95E00E947F256FE971E08AEB95E051
:100CE0000C94AD240895611571058105910511F0ED
:100CF0000C94E82008954F925F926F927F928F92AA
:100D00009F92AF92BF92CF92DF92EF92FF920F939A
:100D10001F93CF93DF936A012AE0289F5001299FF8
:100D2000B00C1124269F4001279F900C1124E12C28
:100D3000F12C2A01662457FC6094762CC0E0D0E0A8
:100D40006DE070E081EA91E00E946D1184019701ED
:100D5000AE016CEB72E08CEB92E00E9426038823DC
:100D600001F1C701B5010E94B92B892B51F0CE01C9
:100D7000B5010E94B92B892B21F0CB3B82E0D8072B
:100D800081F468E070E08FEA91E00E946D11C30188
:100D9000B2010E94730663E070E088EB91E00E946C
:100DA0006D112196CC3B82E0D80751F66DE070E0E2
:100DB0008EE791E00E946D116EE070E08CE891E0AA
:100DC0000E946D118FEFE81AF80A8CEBE81682E0AA
:100DD000F80609F0B3CFCCEBD2E0EE24D7FCE094D8
:100DE000FE2C6DE070E081EA91E00E946D1168E0F8
:100DF00070E08FEA91E00E946D11C701B6010E9478
:100E0000730663E070E088EB91E00E946D1121971A
:100E100041F7DF91CF911F910F91FF90EF90DF90FD
:100E2000CF90BF90AF909F908F907F906F905F908A
:100E30004F900895AF92BF92CF92DF92EF92FF92C0
:100E40000F931F93CF93DF937C016B015A0180E5D1
:100E50000E94AB020E944729EB011C161D0614F0EC
:100E6000C2E3D0E0A501B60184E40E94AB020E9477
:100E700047298B011616170614F003E010E0A501B0
:100E8000B6018DE40E94AB020E9447296B01161641
:100E900017061CF075E0C72ED12C0E94FC0281E0E1
:100EA000E816F10429F082E0E816F10451F14EC091
:100EB000AE01B601C8010E947B0661E170E08CEBD7
:100EC00091E00E946D110E940E0366E170E08EECCD
:100ED00091E00E946D1163E070E085EE91E00E9468
:100EE0006D1161E170E089EE91E0DF91CF911F918A
:100EF0000F91FF90EF90DF90CF90BF90AF900C9448
:100F00006D1160E170E088EF91E00E946D1161E188
:100F100070E089E092E00E946D1161E170E08BE188
:100F200092E00E946D1160E170E08DE292E00E941B
:100F30006D1165E170E08EE392E00E946D1165E154
:100F400070E084E592E00E946D11DBCFDF91CF91DC
:100F50001F910F91FF90EF90DF90CF90BF90AF90D7
:100F60000895CF92DF92EF92FF926115710581058E
:100F70009105D9F0611520E472078105910570F0A3
:100F800028EE33E040E050E00E94CD2B6B017C0165
:100F9000CA01B9010E947306C60101C0CB01FF90CE
:100FA000EF90DF90CF900C941021FF90EF90DF90A6
:100FB000CF9008954F925F926F927F928F929F92FF
:100FC000AF92BF92CF92DF92EF92FF920F931F9357
:100FD000CF93DF931F92CDB7DEB74C016B015A015F
:100FE00027013801440C551C661C771C00E010E0FA
:100FF0000A151B0574F4422FB601C40129830E940F
:101000005A02C301B2010E94B1070F5F1F4F29812D
:10101000EFCF0F90DF91CF911F910F91FF90EF9045
:10102000DF90CF90BF90AF909F908F907F906F9008
:101030005F904F9008952F923F924F925F926F92E0
:101040007F928F929F92AF92BF92CF92DF92EF9258
:10105000FF920F931F93CF93DF93CDB7DEB76497C3
:101060000FB6F894DEBF0FBECDBF9C8B8B8B7A83FF
:1010700069835D834C830A871B872C873D870E9489
:101080004B01AC81BD810D911D912D913C91139728
:1010900014968D919D910D90BC91A02D8017910774
:1010A000A207B30714F4D901C801EC81FD810085C2
:1010B000118522853385BC01CD0160177107820738
:1010C000930714F4C901B80160936C0470936D0424
:1010D00080936E0490936F0422E030E040E050E093
:1010E0000E94EF2B882499245401821A930AA40A9F
:1010F000B50A33243394A981BA814D915D916D91E4
:101100007C91EB89FC8980819181A281B381481710
:1011100059076A077B070CF4312CF1E0FB83A981A6
:10112000BA8114964D915D916D917C911797EB89E1
:10113000FC8984819581A681B781481759076A0780
:101140007B070CF41B8222242394A981BA81189670
:101150004D915D916D917C911B97EB89FC89808508
:101160009185A285B385481759076A077B070CF458
:10117000212C8E829F82A886B9862401350181E0C8
:10118000F32DF827F98B2B8128272A8BA981BA8187
:10119000ED90FD900D911C91EB89FC8920813181AE
:1011A000428153816091380470913904C32C80913D
:1011B0003E0490913F040E9434028E87A981BA8137
:1011C0001496ED90FD900D911C911797EB89FC8979
:1011D000248135814681578160913A0470913B04A6
:1011E000CB8080914004909141040E9434028F870B
:1011F000A981BA811896ED90FD900D911C911B97D5
:10120000EB89FC89208531854285538560913C04BA
:1012100070913D04C22C80914204909143040E943D
:101220003402888BFE85FF23E9F1EC81FD8180810A
:101230009181A281B381880E991EAA1EBB1E18142B
:1012400019041A041B040CF0C8C060913204709198
:101250003304432D80912C0490912D040E945A0256
:1012600080916C0490916D04A0916E04B0916F0414
:10127000881A990AAA0ABB0AEB89FC8980819181A4
:10128000A281B381332021F00196A11DB11D05C0BB
:101290000197A109B109EB89FC8980839183A2831D
:1012A000B3839BC080913E0490913F040E9424022E
:1012B000811109C080913804909139040E94240260
:1012C000882309F48AC0C0905105D0905205E0905F
:1012D0005305F0905405AB89BC896D917D918D913A
:1012E0009C9124E030E040E050E00E94EF2BA2E02F
:1012F000220F331F441F551FAA95D1F7CA01B90108
:101300000E947A29A70196010E94DF2820E030E0A0
:1013100040E251E40E94D32A0E9447290E947A2980
:1013200020E030E040E251E40E94DF283110AAC101
:1013300020E030E040EC5FE30E94FF27609331053E
:1013400070933205809333059093340520913105D5
:10135000309132054091330550913405C701B601F3
:101360000E94D32A20E030E040E85EE30E94D32AC6
:101370000E94472912E0660F771F881F991F1A9550
:10138000D1F7A981BA816D937D938D939C93139727
:10139000EB89FC890081118122813381AB01BC0181
:1013A000401B510B620B730B77FF07C07095609564
:1013B000509541955F4F6F4F7F4F809132049091D0
:1013C0003304EA84FB840C851D852989BC01809146
:1013D0002C0490912D040E94DA07FF85FF23F1F180
:1013E000EC81FD8184819581A681B781480E591ECB
:1013F0006A1E7B1E14141504160417040CF0CBC0CF
:1014000060913404709135044B8180912E04909149
:101410002F040E945A0280916C0490916D04A09157
:101420006E04B0916F04481A590A6A0A7B0AEB8964
:10143000FC8984819581A681B781FB81FF2321F0FE
:101440000196A11DB11D03C00197A109B109EB8946
:10145000FC8984839583A683B7839DC080914004D3
:10146000909141040E942402811109C080913A04A4
:1014700090913B040E942402882309F48CC0C09000
:101480004D05D0904E05E0904F05F0905005EB894A
:10149000FC89648175818681978124E030E040E099
:1014A00050E00E94EF2BF2E0220F331F441F551F24
:1014B000FA95D1F7CA01B9010E947A29A7019601CC
:1014C0000E94DF2820E030E040E251E40E94D32A6D
:1014D0000E9447290E947A2920E030E040E251E44E
:1014E0000E94DF28FB81F111D4C020E030E040EC05
:1014F0005FE30E94FF276093350570933605809364
:101500003705909338052091350530913605409187
:10151000370550913805C701B6010E94D32A20E053
:1015200030E040E85EE30E94D32A0E944729B2E0FF
:10153000660F771F881F991FBA95D1F7A981BA81C5
:1015400014966D937D938D939C931797EB89FC89EB
:101550000481158126813781AB01BC01401B510BF1
:10156000620B730B77FF07C070956095509541959E
:101570005F4F6F4F7F4F8091340490913504EA8420
:10158000FB840C851D852A89BC0180912E049091D5
:101590002F040E94DA07F889FF2309F44BC0EC817D
:1015A000FD8180859185A285B3852E813F81488507
:1015B0005985280F391F4A1F5B1F2E833F83488799
:1015C00059871216130614061506A4F56091360401
:1015D00070913704422D80913004909131040E9423
:1015E0005A0280916C0490916D04A0916E04B091A8
:1015F0006F042E813F8148855985281B390B4A0B82
:101600005B0B2E833F8348875987EB89FC89808554
:101610009185A285B385222021F00196A11DB11DDF
:1016200005C00197A109B109EB89FC8980879187E1
:10163000A287B3876A857B858C859D850E94B107CB
:10164000FE85F111A3CD2F852111A0CD388931114F
:101650009DCD64960FB6F894DEBF0FBECDBFDF916F
:10166000CF911F910F91FF90EF90DF90CF90BF909F
:10167000AF909F908F907F906F905F904F903F9032
:101680002F90089520E030E040EC5FE30E94FE27B9
:1016900055CE20E030E040EC5FE30E94FE272BCFE8
:1016A000EF92FF920F931F9305E0E02EF12C04E0E0
:1016B00010E023E030E042E050E068EC70E082EEC1
:1016C00093E00E94452089E0E82EF12C08E010E02C
:1016D00027E030E046E050E068EC70E088EC93E012
:1016E0000E94452085EC93E00E94FF1E82EC93E06F
:1016F0001F910F91FF90EF900C94FF1E0E94EC0B36
:101700000E949E040E94660F0E940C1A67E273E01A
:101710008AEB95E00E94CA246AE473E08AEB95E0C4
:101720000E94CA2463E070E085E191E00C946D11A1
:10173000CF93DF930E94FF0B0E94C60B8A3051F4B7
:101740000E94FA0BEC010E94F70BBE010E946D1182
:101750000E94DD0B0E94C60B8B3351F40E94FA0BE2
:10176000EC010E94F70BBE010E94BF1B0E94DD0B23
:101770000E94D10B892B11F00E943C01DF91CF9187
:101780000C94FA030C947E0B0C94980B80917204C9
:1017900090917304892B19F08091F404089580E0EE
:1017A000089581E090E0209170043091710421311E
:1017B000374214F480E090E00895E4E7F4E084E038
:1017C000E43FF80711F01192FACF109273041092CF
:1017D00072041092F404089526E040E052EC61E0B7
:1017E00070E08AEB95E00E9458230C94DD0B84E7AF
:1017F00094E00895809172049091730408958AEBA7
:1018000095E00E94752218161906DCF48AEB95E023
:101810000E948E228093F40410927104109270043E
:101820008A30E1F02091720430917304F901EC5890
:10183000FB4F80832F5F3F4F3093730420937204DC
:1018400008958091700490917104019690937104B1
:101850008093700485E090E00C9410210895CB01F2
:101860000C94C62FCB01642F0C94CE2F0F931F9393
:10187000CF93DF93CDB7DEB72A970FB6F894DEBFCC
:101880000FBECDBF19821A821B821C82FE013596C3
:1018900096E0DF011D929A95E9F790E0292F30E05C
:1018A0002417350734F5FB01E20FF31F2081A1E077
:1018B000A90F28131CC01A2FFE0131960BE0090F47
:1018C000CF01212F30E02417350764F4101751F0B1
:1018D000260F371FD9012C91322F3F7D19F021930C
:1018E0001F5FEFCF60E070E00E94332E05C09A2F9B
:1018F000D5CF60E070E0CB012A960FB6F894DEBF3A
:101900000FBECDBFDF91CF911F910F91089590E051
:10191000292F30E02417350744F4FB01E20FF31FB1
:101920002081281721F09F5FF3CF80E0089581E0A8
:1019300008952F923F924F925F926F927F928F9273
:101940009F92AF92BF92CF92DF92EF92FF920F934E
:101950001F93CF93DF93CDB7DEB76C970FB6F89494
:10196000DEBF0FBECDBF1C012A013B018901DC0196
:101970001896CD90DD90ED90FC901B978D919D91E8
:101980000D90BC91A02D89839A83AB83BC839C016D
:10199000AD01C701B6010E94FE2720E030E040E41F
:1019A00050E40E94D32A69877A878B879C87A70196
:1019B0009601F10160897189828993890E94FE27CD
:1019C00020E030E040E450E40E94D32A29853A85A3
:1019D0004B855C850E94FE27698B7A8B8B8B9C8B59
:1019E000D1011C968D909D90AD90BC901F97149640
:1019F0008D919D910D90BC91A02D8D839E83AF8381
:101A0000B8879C01AD01C501B4010E94FE2720E00A
:101A100030E040E450E40E94D32A6B017C01A50130
:101A20009401F10164897589868997890E94FE274E
:101A300020E030E040E450E40E94D32AA701960160
:101A40000E94FE274B015C01A3019201C301B20178
:101A50000E94D32A6D877E878F87988BA30192017E
:101A60000E94D32A6D8B7E8B8F8B988F2D813E8128
:101A70004F815885D1015C966D917D918D919C919E
:101A80005F970E94FE27A70196010E94FE27A501ED
:101A900094010E94FE272D893E894F89588D0E940E
:101AA000D32A698F7A8F8B8F9C8F2D853E854F85AA
:101AB0005889C501B4010E94D32A9B01AC01698DEC
:101AC0007A8D8B8D9C8D0E94FF274B015C01A301B9
:101AD0009201C701B6010E94D32A9B01AC01C50146
:101AE000B4010E94FF272D813E814F8158850E94BD
:101AF000FF276B017C0129813A814B815C81F101D7
:101B0000608D718D828D938D0E94FE2729853A8587
:101B10004B855C850E94FE2729893A894B895C891F
:101B20000E94FE272D893E894F89588D0E94D32A15
:101B30004B015C012D853E854F85588969897A89DD
:101B40008B899C890E94D32A9B01AC01C501B401F9
:101B50000E94FF274B015C01A301920169857A85F0
:101B60008B859C850E94D32A9B01AC01C501B401E1
:101B70000E94FF2729813A814B815C810E94FF27C7
:101B8000D8016D937D938D939C931397F801C48234
:101B9000D582E682F7826C960FB6F894DEBF0FBE50
:101BA000CDBFDF91CF911F910F91FF90EF90DF900C
:101BB000CF90BF90AF909F908F907F906F905F90ED
:101BC0004F903F902F9008958F929F92AF92BF9227
:101BD000CF92DF92EF92FF92CF9380903105909059
:101BE0003205A0903305B090340520913D05309129
:101BF0003E0540913F0550914005C501B4010E944A
:101C0000FE276B017C0120E030E0A9010E94C82A78
:101C1000181624F0F7FAF094F7F8F094C09225051E
:101C2000D0922605E0922705F092280520914105E3
:101C3000309142054091430550914405609135052E
:101C40007091360580913705909138050E94FE27E6
:101C50006B017C0120E030E0A9010E94C82A18161F
:101C600024F0F7FAF094F7F8F094C0922905D09296
:101C70002A05E0922B05F0922C0520914505309124
:101C8000460540914705509148056091390570918E
:101C90003A0580913B0590913C050E94FE276B011F
:101CA0007C0120E030E0A9010E94C82A181624F027
:101CB000F7FAF094F7F8F094C0922D05D0922E0523
:101CC000E0922F05F0923005609151057091520518
:101CD0008091530590915405A50194010E949902A9
:101CE00060930D0570930E0580930F05909310057A
:101CF00020913505309136054091370550913805D2
:101D000060914D0570914E0580914F059091500561
:101D10000E94990260931105709312058093130538
:101D2000909314052091390530913A0540913B0577
:101D300050913C056091490570914A0580914B0591
:101D400090914C050E9499026093150570931605B9
:101D5000809317059093180580900D0590900E05BF
:101D6000A0900F05B0901005C0901905D0901A05ED
:101D7000E0901B05F0901C058C189D08AE08BF086C
:101D8000B7FE08C0B094A09490948094811C911CDC
:101D9000A11CB11C8092010590920205A09203053E
:101DA000B09204058090110590901205A090130543
:101DB000B0901405C0901D05D0901E05E0901F0541
:101DC000F09020058C189D08AE08BF08B7FE08C02B
:101DD000B094A09490948094811C911CA11CB11C7F
:101DE0008092050590920605A0920705B09208051D
:101DF000C0902105D0902205E0902305F0902405A5
:101E0000DC01CB018C199D09AE09BF09B7FF07C0E2
:101E1000B095A095909581959F4FAF4FBF4F809300
:101E2000090590930A05A0930B05B0930C05C1E03A
:101E300020913D0530913E0540913F055091400570
:101E40006091310570913205809133059091340590
:101E50000E94C82A87FDC0E0C0930C01C1E0209118
:101E600041053091420540914305509144056091F0
:101E700035057091360580913705909138050E949F
:101E8000C82A87FDC0E0C0930B01C1E02091450541
:101E900030914605409147055091480560913905BC
:101EA00070913A0580913B0590913C050E94C82AAB
:101EB00087FDC0E0C0930A01CF91FF90EF90DF90C3
:101EC000CF90BF90AF909F908F90089510923D0556
:101ED00010923E0510923F05109240051092410568
:101EE0001092420510924305109244051092450548
:101EF0001092460510924705109248051092310540
:101F00001092320510923305109234051092350567
:101F10001092360510923705109238051092390547
:101F200010923A0510923B0510923C0580915204A4
:101F300090915304A0915404B0915504809351059D
:101F400090935205A0935305B09354058091560485
:101F500090915704A0915804B091590480934D0575
:101F600090934E05A0934F05B093500580915A046D
:101F700090915B04A0915C04B0915D04809349054D
:101F800090934A05A0934B05B0934C050C94E40D37
:101F90008F929F92AF92BF92CF92DF92EF92FF9279
:101FA0000F931F93CF93DF934B015C0160933D052B
:101FB00070933E0580933F059093400581E4C82EC1
:101FC00085E0D82EF6012083318342835383C5E414
:101FD000D5E0E882F9820A831B83609151057091F4
:101FE00052058091530590915405A50194010E94DA
:101FF00099026093190570931A0580931B059093BD
:102000001C05F601208131814281538160914D058B
:1020100070914E0580914F05909150050E94990254
:1020200060931D0570931E0580931F0590932005F6
:10203000288139814A815B816091490570914A0507
:1020400080914B0590914C050E9499026093210567
:10205000709322058093230590932405DF91CF91FF
:102060001F910F91FF90EF90DF90CF90BF90AF90B6
:102070009F908F900C94E40D4F925F926F927F929D
:102080008F929F92AF92BF92CF92DF92EF92FF9288
:10209000CF93DF9300D000D0CDB7DEB76B017C01CA
:1020A000609125057091260580912705909128055E
:1020B0008090290590902A05A0902B05B0902C05C2
:1020C00040902D0550902E0560902F0570903005A2
:1020D0009B01AC010E94D32A69837A838B839C8302
:1020E000A5019401C501B4010E94D32A9B01AC0152
:1020F00069817A818B819C810E94FF274B015C0161
:10210000A3019201C301B2010E94D32A9B01AC0139
:10211000C501B4010E94FF270E94402B2B013C0106
:1021200040910105509102056091030570910405ED
:102130008091050590910605A0910705B0910805CD
:10214000F0910905E0910A0530910B0520910C05ED
:102150008F2E9E2EA32EB22E84179507A607B707A3
:1021600044F484169506A606B70654F44A015B01AA
:1021700007C088169906AA06BB0614F44C015D0137
:1021800020E030E0A901C701B6010E94D8288823C9
:1021900061F181149104A104B10439F120EC31EE14
:1021A00044E65CE4C301B2010E94D32AA701960170
:1021B0000E94DF286B017C01C501B4010E947A29CD
:1021C0009B01AC01C701B6010E94DF2820E030E08E
:1021D00042E852E40E94FE276B017C0120E030E0DF
:1021E000A9010E94D82887FF03C0C12CD12C7601F9
:1021F000C701B6010E9447290F900F900F900F90D2
:10220000DF91CF91FF90EF90DF90CF90BF90AF9094
:102210009F908F907F906F905F904F9008950F9355
:102220001F938B019C0141E055E06DE075E089E171
:1022300095E00E941B088091310590913205A09194
:102240003305B091340580933D0590933E05A093EE
:102250003F05B09340058091350590913605A091DA
:102260003705B09138058093410590934205A093BE
:102270004305B09344058091390590913A05A091AA
:102280003B05B0913C058093450590934605A0938E
:102290004705B09348051F910F910C94E40D809170
:1022A000090590910A05A0910B05B0910C0518162F
:1022B00019061A061B062CF460E070E080EA93E42D
:1022C0000AC060916A0470916B04882777FD80953D
:1022D000982F0E947A290C943C102F923F924F9293
:1022E0005F926F927F928F929F92AF92BF92CF92A6
:1022F000DF92EF92FF920F931F93CF93DF93CDB7AF
:10230000DEB7CB54D1090FB6F894DEBF0FBECDBFF8
:102310001C012B01DC018C918F3211F40C94AA1951
:10232000873421F08855833008F004C6A201B1013A
:1023300087E40E94360C0E94472969A77AA78BA7D9
:102340009CA7B9A5B9AF09A51AA511270430110595
:1023500008F081C080910005A201B101882309F431
:1023600046C088E50E94870C882341F0A201B10194
:1023700088E50E94360C4B015C0108C080903D0549
:1023800090903E05A0903F05B0904005A201B1019C
:1023900089E50E94870C882341F0A201B10189E5FB
:1023A0000E94360C6B017C0108C0C0904105D090A2
:1023B0004205E0904305F0904405A201B1018AE591
:1023C0000E94870C882331F0A201B1018AE50E94A6
:1023D000360C3CC02091450530914605409147059B
:1023E000509148052DA73EA74FA758AB3DC088E5A3
:1023F0000E94360C20913D0530913E0540913F05ED
:10240000509140050E94FF274B015C01A201B101E0
:1024100089E50E94360C209141053091420540919A
:102420004305509144050E94FF276B017C01A201E6
:10243000B1018AE50E94360C209145053091460590
:1024400040914705509148050E94FF276DA77EA740
:102450008FA798AB09C01DA61EA61FA618AAC12C3F
:10246000D12C760146015701A201B1018CE40E94F2
:10247000360C0E9447297093FF046093FE041616E1
:1024800017061CF4CB010E9402020431110509F465
:10249000D9C3FCF40430110524F402301105BCF159
:1024A000A0C00430110509F025C5A201B10180E5E5
:1024B0000E94360C20E030E04AE754E40E94D32A20
:1024C0000E944729882777FD8095982F0E94B107A1
:1024D00026C50E31110509F429C44CF40531110546
:1024E00009F4E5C30C31110509F48FC403C50B359C
:1024F000110509F4F2C40C35110509F4F1C40A35CB
:10250000110509F0F7C481E08093000508C58092A9
:10251000310590923205A0923305B0923405C092F5
:102520003505D0923605E0923705F09238058DA535
:102530009EA5AFA5B8A98093390590933A05A093BD
:102540003B05B0933C050E94E40DA201B10187E474
:102550000E94870C8823F9F099AD9130C9F4A2014B
:10256000B10186E40E94360C0E9447291616170610
:1025700094F4882777FD8095982F0E947A2960939C
:10258000FA047093FB048093FC049093FD0403C051
:102590000E944F1115C0C090FA04D090FB04E09047
:1025A000FC04F090FD0420E030E0A901C701B60171
:1025B0000E94C82A181664F7C701B6010E943C1091
:1025C0006093F6047093F7048093F8049093F904F1
:1025D0006091F6047091F7048091F8049091F904E9
:1025E00030C4A201B10182E40E94360C0E94472946
:1025F0006330710509F07DC180913D0590913E05E4
:10260000A0913F05B091400589839A83AB83BC8339
:102610008091410590914205A0914305B0914405F8
:102620008D839E83AF83B887A201B10181E60E94AA
:10263000360C69877A878B879C87A201B10182E675
:102640000E94360C6D877E878F87988BA201B1011F
:1026500083E60E94360C698B7A8B8B8B9C8BA20154
:10266000B10184E60E94360C6D8B7E8B8F8B988F28
:10267000A201B10185E60E94360C698F7A8F8B8F9B
:102680009C8FA201B10186E60E94360C6D8F7E8F71
:102690008F8F98A3A980BA800B811C819D808E802A
:1026A000AF812796AFAF2797B8852896BFAF2897F9
:1026B000C12CD12C7601612C712CB301882777FDB8
:1026C0008095982F0E947A2929E33EE843EE5DE346
:1026D0000E94D32AAB01BC019E012F5D3F4FCE016A
:1026E00001960E94990CE9A1E9ABFAA1FDAB2BA1DF
:1026F00029AF3CA13AAF9F0149AD5AADB501C80120
:102700000E94FE2769A77AA78BA79CA71DA10EA1EF
:102710004FA14EAF58A523965FAF2397212F302F9F
:10272000692D782D27968FAD279728969FAD2897EE
:102730000E94FE274B015C0129A53AA54BA55CA58B
:10274000CA01B9010E94D32A69A77AA78BA79CA7BF
:10275000A5019401C501B4010E94D32A9B01AC01DB
:1027600069A57AA58BA59CA50E94FF274B015C015A
:1027700020E030E0A9010E94C82A181664F4C501BF
:10278000B4010E94402B9B01AC01C701B6010E941D
:10279000FF276B017C018FEF681A780A9AE06916AF
:1027A000710481F04801AEAD2796AFAF279723960D
:1027B000BFAD23972896BFAF2897A9A8BDA809AD9C
:1027C0001AAD7BCF20910F01309110014091110182
:1027D00050911201C701B6010E94DF280E94C5284E
:1027E0000E9447293B01623071051CF492E0692E7A
:1027F000712CB30161507109882777FD8095982F5E
:102800000E947A299B01AC0160E070E080E89FE3C0
:102810000E94DF284B015C0100E010E0B80188272E
:1028200077FD8095982F0E947A29A50194010E9436
:10283000D32AAB01BC019E012F5D3F4FCE01019613
:102840000E94990C8DA19EA1AFA1B8A549A15AA142
:102850006BA17CA140933105509332056093330501
:10286000709334058093350590933605A093370512
:10287000B09338052DA53EA54FA558A9209339053D
:1028800030933A0540933B0550933C050E94E40D7C
:10289000C090FA04D090FB04E090FC04F090FD049A
:1028A00020E030E0A901C701B6010E94C82A18162D
:1028B0002CF4C701B6010E943C1002C00E944F11C7
:1028C0006093F6047093F7048093F8049093F904EE
:1028D0006091F6047091F7048091F8049091F904E6
:1028E0000E940F110F5F1F4F061517050CF496CFAE
:1028F00016C3A201B10189E40E94360C20913D0566
:1029000030913E0540913F05509140050E94FF27C0
:102910006AAF7BAF8CAF9DAFA201B1018AE40E9488
:10292000360C20914105309142054091430550916C
:10293000440529A73AA74BA75CA70E94FF27229628
:102940006CAF7DAF8EAF9FAF22972AAD3BAD4CAD44
:102950005DAD60913D0570913E0580913F05909180
:1029600040050E94FE2769AB7AAB8BAB9CAB2296ED
:102970002CAD3DAD4EAD5FAD229769A57AA58BA577
:102980009CA50E94FE276DAB7EAB8FAB98AF2AADA6
:102990003BAD4CAD5DADC501B4010E94FE274B01BE
:1029A0005C0122962CAD3DAD4EAD5FAD2297C701C7
:1029B000B6010E94FE276B017C0139AD323089F4EB
:1029C000A50194010E94722869A77AA78BA79CA7EA
:1029D00029A93AA94BA95CA96DA97EA98FA998AD8F
:1029E00012C029A93AA94BA95CA96DA97EA98FA9F2
:1029F00098AD0E94722869A77AA78BA79CA7A5010A
:102A00009401C701B6010E9472286B017C0129A5BF
:102A10003AA54BA55CA50E94D828181654F02BEDBA
:102A20003FE049EC50E4C701B6010E94FF276B016B
:102A30007C0129A53AA54BA55CA5C701B6010E945A
:102A4000FE2726966CAF7DAF8EAF9FAF269729A944
:102A50003AA94BA95CA9CA01B9010E94D32A6B010A
:102A60007C012DA93EA94FA958ADCA01B9010E9408
:102A7000D32A9B01AC01C701B6010E94FF270E9427
:102A8000402B6B017C0126962CAD3DAD4EAD5FAD6C
:102A900026970E94D32A20910F0130911001409176
:102AA0001101509112010E94DF280E94C5280E9446
:102AB00047293B0101E010E0CB01AA2797FDA09533
:102AC000BA2F89AB9AABABABBCAB601671060CF4FA
:102AD00026C299AD933021F0B301601B710B01C088
:102AE000B801882777FD8095982F0E947A294B019D
:102AF0005C0169A97AA98BA99CA90E947A299B01EA
:102B0000AC01C501B4010E94DF289B01AC012696EF
:102B10006CAD7DAD8EAD9FAD26970E94D32A9B01F3
:102B2000AC0169A57AA58BA59CA50E94FF274B0146
:102B30005C010E94DC289B01AC01C501B40129960F
:102B40002FAF29972A963FAF2A972B964FAF2B97F7
:102B50002C965FAF2C970E94362B4B015C01299677
:102B60002FAD29972A963FAD2A972B964FAD2B97DD
:102B70002C965FAD2C97C701B6010E94D32A9B010A
:102B8000AC016AAD7BAD8CAD9DAD0E94FF2760931B
:102B90003105709332058093330590933405A50178
:102BA0009401C701B6010E94D32A9B01AC01229671
:102BB0006CAD7DAD8EAD9FAD22970E94FF276093D7
:102BC00035057093360580933705909338052DA50C
:102BD0003EA54FA558A92093390530933A05409357
:102BE0003B0550933C050E94E40D8090FA049090C0
:102BF000FB04A090FC04B090FD0420E030E0A901AB
:102C0000C501B4010E94C82A18162CF4C501B401EC
:102C10000E943C1002C00E944F116093F604709312
:102C2000F7048093F8049093F9046091F60470918E
:102C3000F7048091F8049091F9040E940F110F5F3E
:102C40001F4F43CF80915E0490915F04A091600478
:102C5000B09161048093510590935205A093530560
:102C6000B09354058091620490916304A091640430
:102C7000B091650480934D0590934E05A0934F0548
:102C8000B09350058091660490916704A091680408
:102C9000B09169048093490590934A05A0934B0530
:102CA000B0934C0589E092E0A1E8BBE334C0809189
:102CB000520490915304A0915404B0915504809310
:102CC000510590935205A0935305B09354058091FC
:102CD000560490915704A0915804B09159048093E0
:102CE0004D0590934E05A0934F05B09350058091EC
:102CF0005A0490915B04A0915C04B0915D048093B0
:102D0000490590934A05A0934B05B0934C058DEC73
:102D10009CECACECBDE380930F0190931001A09369
:102D20001101B09312010E94E40DF9C0A201B1019A
:102D300088E50E94360C6B017C01A201B10189E596
:102D40000E94360C4B015C01A201B1018AE50E9490
:102D5000360C6DA77EA78FA798AB809100058823BE
:102D600009F472C0A201B10188E50E94870C8111AB
:102D700008C0C0903D05D0903E05E0903F05F09022
:102D80004005A201B10189E50E94870C811108C0AC
:102D90008090410590904205A0904305B090440575
:102DA000A201B1018AE50E94870C81110CC08091BB
:102DB000450590914605A0914705B09148058DA71E
:102DC0009EA7AFA7B8ABC0923105D0923205E09272
:102DD0003305F09234058092350590923605A09225
:102DE0003705B09238052DA53EA54FA558A92093CB
:102DF000390530933A0540933B0550933C050E94BA
:102E0000E40D0E944F110E940F1110923105109293
:102E10003205109233051092340510923505109248
:102E20003605109237051092380510923905109228
:102E30003A0510923B0510923C050E94E40D0E9459
:102E40004F110E940F116BC020914505309146052E
:102E500040914705509148056DA57EA58FA598A97D
:102E60000E94FF276DA77EA78FA798AB20914105F1
:102E7000309142054091430550914405C501B4018C
:102E80000E94FF274B015C01A701960160913D055F
:102E900070913E0580913F05909140050E94FF276B
:102EA0006093310570933205809333059093340518
:102EB0008092350590923605A0923705B09238057C
:102EC0008DA59EA5AFA5B8A98093390590933A0525
:102ED000A0933B05B0933C0592CF109200051FC014
:102EE000E12CF12C8701A8019701C801B7010E94CC
:102EF000C80F15C063E573E08AEB95E00E94AD242E
:102F00004AE050E069A58AEB95E00E94BE254AE0C0
:102F100050E06AE070E08AEB95E00E94872580919E
:102F2000FE049091FF041816190624F480E090E046
:102F30000E941302D1018C918D3409F050C0A2017E
:102F4000B1010E94360C0E944C29162F633089F083
:102F50006530F1F4A201B1018CE40E94360C0E94AC
:102F6000472970930E0160930D01CB010E9413025B
:102F70001CC0A201B1018CE40E94360C0E944729BA
:102F800070930E0160930D01CB010E9402020DC0EF
:102F90006CE573E08AEB95E00E94AD244AE050E0D6
:102FA000612F8AEB95E00E94C525A201B10180E561
:102FB0000E94360C6B017C0120E030E0A9010E94E8
:102FC000C82A181664F420E030E04AE754E4C70148
:102FD000B6010E94D32A0E944C290E94B107F10138
:102FE0008081843561F4A201B1010E94360C0E94F7
:102FF0004C29862FA201B10190E00E941A07D1014D
:103000008C91843209F0A6C1A201B1010E94360C54
:103010000E944C29862F90E0FC013197E531F105A3
:1030200008F098C1E45CFF4F0C940E2CA201B10192
:1030300088E50E94870C882351F0A201B10188E540
:103040000E94360C0E94472988E50E945C03A20179
:10305000B10189E50E94870C882351F0A201B101DA
:1030600089E50E94360C0E94472989E50E945C038D
:10307000A201B1018AE50E94870C882309F46AC184
:10308000A201B1018AE50E94360C0E9447298AE517
:103090000E945C035FC1A201B10188E50E94870C18
:1030A000882351F0A201B10188E50E94360C0E94EC
:1030B000472988E50E947203A201B10189E50E94B7
:1030C000870C882351F0A201B10189E50E94360CDA
:1030D0000E94472989E50E947203A201B1018AE595
:1030E0000E94870C882309F435C1A201B1018AE549
:1030F0000E94360C0E9447298AE50E9472032AC169
:10310000A201B10188E50E94870C882351F0A20139
:10311000B10188E50E94360C0E94472988E50E948B
:103120008803A201B10189E50E94870C882351F030
:10313000A201B10189E50E94360C0E94472989E568
:103140000E948803A201B1018AE50E94870C8823AE
:1031500009F400C1A201B1018AE50E94360C0E9467
:1031600047298AE50E948803F5C0A201B10188E5DC
:103170000E94870C882351F0A201B10188E50E94CA
:10318000360C0E94472988E50E949E03A201B101E6
:1031900089E50E94870C882351F0A201B10189E5DD
:1031A0000E94360C0E94472989E50E949E03A201D5
:1031B000B1018AE50E94870C882309F4CBC0A201E3
:1031C000B1018AE50E94360C0E9447298AE50E94D7
:1031D0009E03C0C0A201B1018DE60E94360C0E9480
:1031E0004729CB010E943F03B5C0A201B10188E588
:1031F0000E94870C882351F0A201B10188E50E944A
:10320000360CAB01BC0188E50E94D403A201B101D8
:1032100089E50E94870C882351F0A201B10189E55C
:103220000E94360CAB01BC0189E50E94D403A201C7
:10323000B1018AE50E94870C8823E9F0A201B1015F
:103240008AE50E94360CAB01BC018AE50E94D403DA
:1032500012C0A201B10186E40E94870C882309F400
:1032600079C0A201B10186E40E94360C0E94472970
:10327000CB010E94F5030E94660F6CC0A201B10150
:1032800081E40E94870C882351F0A201B10181E4FE
:103290000E94360C0E94472981E40E94B403A201D7
:1032A000B10182E40E94870C882351F0A201B10190
:1032B00082E40E94360C0E94472982E40E94B403F3
:1032C000A201B10181E40E94870C882351F0A20180
:1032D000B10181E40E94360C0E94472981E40E94DA
:1032E000C403A201B10182E40E94870C882391F1FA
:1032F000A201B10182E40E94360C0E94472982E4B7
:103300000E94C40327C0A201B1018CE40E94360CC4
:103310000E9447296115710519F0CB010E946604CE
:10332000A201B10183E50E94360C0E944729611574
:10333000710519F0CB010E94FB03A201B10180E5E8
:103340000E94360C0E9447296115710519F0CB01C6
:103350000E94610560E573E08AEB95E00E94CA2453
:10336000C55BDF4F0FB6F894DEBF0FBECDBFDF9158
:10337000CF911F910F91FF90EF90DF90CF90BF9072
:10338000AF909F908F907F906F905F904F903F9005
:103390002F9008958091520490915304A091540469
:1033A000B09155048093510590935205A093530515
:1033B000B09354058091560490915704A0915804FD
:1033C000B091590480934D0590934E05A0934F05FD
:1033D000B093500580915A0490915B04A0915C04D5
:1033E000B0915D048093490590934A05A0934B05E5
:1033F000B0934C05089590ED980F9A3018F490E032
:10340000C09708959FEB980F963018F490E0C797F7
:1034100008958FEF9FEF08951092790510927A0525
:1034200010927B0510927C0510926D0510926E052E
:1034300010926F051092700510926105109262054E
:10344000109263051092640508958F929F92AF9237
:10345000BF92CF92DF92EF92FF920F931F938C0156
:10346000BC0197FF04C066277727681B790B882764
:1034700077FD8095982F0E947A292DEC3CEC4CEC3E
:103480005DE30E94D32A4B015C01109271051092FA
:1034900072051092730510927405109275051092C2
:1034A00076051092770510927805B801882777FD88
:1034B0008095982F0E947A292DEC3CEC4CEC5DE332
:1034C0000E94D32A9B01AC01609152047091530475
:1034D00080915404909155040E949902CC24DD24DB
:1034E0007601C61AD70AE80AF90AC0926505D09291
:1034F0006605E0926705F0926805109269051092E2
:103500006A0510926B0510926C05F7FE08C0F094E6
:10351000E094D094C094C11CD11CE11CF11CC09259
:103520005905D0925A05E0925B05F0925C05109225
:103530005D0510925E0510925F0510926005809106
:10354000550590915605A0915705B091580518164C
:1035500019061A061B0684F080916A0490916B0488
:10356000AA2797FDA095BA2F8093550590935605ED
:10357000A0935705B093580520EC31EE44E65CE487
:10358000C501B4010E94D32A4B015C01609155052D
:103590007091560580915705909158050E947A299F
:1035A0009B01AC01C501B4010E94DF284B015C0105
:1035B000C701B6010E947A299B01AC01C501B40183
:1035C0000E94DF280E9447298B019C0149E555E0B4
:1035D00065E675E081E795E00E941B081F910F9159
:1035E000FF90EF90DF90CF90BF90AF909F908F9023
:1035F0000895CF92DF92EF92FF920F931F938C0169
:10360000BC0197FF04C066277727681B790B8827C2
:1036100077FD8095982F0E947A292DEC3CEC4CEC9C
:103620005DE30E94D32A6B017C0110927105109218
:103630007205109273051092740510927505109220
:103640007605109277051092780510926505109214
:1036500066051092670510926805B801882777FD06
:103660008095982F0E947A292DEC3CEC4CEC5DE380
:103670000E94D32A9B01AC016091560470915704BB
:1036800080915804909159040E9499029B01AC01C9
:1036900088279927DC01821B930BA40BB50B809321
:1036A000690590936A05A0936B05B0936C05109221
:1036B000590510925A0510925B0510925C05B7FFF0
:1036C00007C0B095A095909581959F4FAF4FBF4F84
:1036D00080935D0590935E05A0935F05B0936005B0
:1036E0008091550590915605A0915705B0915805C8
:1036F000181619061A061B0684F080916A04909128
:103700006B04AA2797FDA095BA2F80935505909337
:103710005605A0935705B093580520EC31EE44E6CA
:103720005CE4C701B6010E94D32A6B017C01609161
:1037300055057091560580915705909158050E9446
:103740007A299B01AC01C701B6010E94DF2820E065
:1037500030E0A9010E94DF280E9447298B019C01CB
:1037600049E555E065E675E081E795E00E941B08B4
:103770001F910F91FF90EF90DF90CF9008952F92BF
:103780003F924F925F926F927F928F929F92AF92F1
:10379000BF92CF92DF92EF92FF920F931F93CF933E
:1037A000DF937C016B018C01C8018E199F098C1578
:1037B0009D050CF04BC2F801C1918F016C2F8DE774
:1037C00095E00E94D827C33509F443C0B4F4CC3443
:1037D00009F44EC0CD3409F45AC0CB3309F069C0A6
:1037E00010928A05109289056EE971E08DE795E0E7
:1037F0000E94942760E573E058C0C83561F0C93570
:10380000C9F0C53509F055C085E090E090938A0570
:103810008093890533C041E050E050938A0540937E
:1038200089056EE971E08DE795E00E94942765E6D1
:1038300073E03BC082E090E090938A058093890515
:103840006EE971E08DE795E00E9494276BE673E0E6
:103850002CC0E3E0F0E0F0938A05E09389056EE97F
:1038600071E08DE795E00E94942761E773E01DC049
:1038700044E050E050938A05409389056EE971E079
:103880008DE795E00E94942767E773E00EC0E7E0BC
:10389000F0E0F0938A05E09389056EE971E08DE729
:1038A00095E00E9494276DE773E08AEB95E00E9413
:1038B000CA248091890590918A05209181053091D3
:1038C00082058330910509F402C11CF401975CF470
:1038D000AFC18530910509F48EC00CF448C107973B
:1038E00009F47FC1A5C12530310509F0A1C160E00F
:1038F00070E08DE795E00E94EB27FC0180810E943B
:10390000FB19782E61E070E08DE795E00E94EB27CF
:10391000FC0180810E94FB19682E62E070E08DE757
:1039200095E00E94EB27FC0180810E94FB19EC01CD
:1039300063E070E08DE795E00E94EB27FC01808159
:103940000E94FB19B72CB29470EFB722A12C962CD1
:10395000812C950128293929282B392BE4E0CC0F1B
:10396000DD1FEA95E1F72C2B3D2B30938805209342
:10397000870564E070E08DE795E00E94EB27FC018D
:1039800080810E94FB19892B19F081E090E002C030
:103990008FEF9FEF4091890550918A05209187050F
:1039A000309188054130510559F4AC01429FC00166
:1039B000439F900D529F900D11240E94251A0AC01A
:1039C000FC01E29FC001E39F900DF29F900D112436
:1039D0000E94F91A6EE971E08DE795E00E94942744
:1039E00063E873E08AEB95E00E94AD24609187055F
:1039F00070918805B5C02430310509F019C160E027
:103A000070E08DE795E00E94EB27FC0180810E9429
:103A1000FB19782E61E070E08DE795E00E94EB27BE
:103A2000FC0180810E94FB19682E62E070E08DE746
:103A300095E00E94EB27FC0180810E94FB19EC01BC
:103A400063E070E08DE795E00E94EB27FC01808148
:103A50000E94FB19572C529450EF5522412C362CC2
:103A6000212C920122293329282B392B64E0CC0FF9
:103A7000DD1F6A95E1F72C2B3D2B309386052093B3
:103A800085056EE971E08DE795E00E94942769E86D
:103A900073E08AEB95E00E94AD24609185057091FA
:103AA00086054AE050E08AEB95E00E9487258091E8
:103AB000850590918605181619060CF0B9C0BC0151
:103AC000882777FD8095982F0E94E820B1C022308A
:103AD000310509F0ADC060E070E08DE795E00E942F
:103AE000EB27FC0180810E94FB19EC0161E070E092
:103AF0008DE795E00E94EB27FC0180810E94FB1975
:103B000044E0CC0FDD1F4A95E1F7C82BD92BD093A9
:103B10001401C09313011C161D0694F4FAE0FC9FD7
:103B2000C001FD9F900D1124AA2797FDA095BA2FE3
:103B30008093550590935605A0935705B09358056B
:103B40006EE971E08DE795E00E94942765E973E0E6
:103B50008AEB95E00E94AD246091130170911401ED
:103B60004AE050E08AEB95E00E94872561C0223050
:103B7000310509F05DC060E070E08DE795E00E94DE
:103B8000EB27FC0180810E94FB19EC0161E070E0F1
:103B90008DE795E00E94EB27FC0180810E94FB19D4
:103BA00034E0CC0FDD1F3A95E1F7C82BD92B2097D5
:103BB00029F480E090E00E94130203C0CE010E942D
:103BC00002026EE971E08DE795E00E9494276CE9AE
:103BD00073E08AEB95E00E94AD244AE050E0BE011C
:103BE000C1CF2230310521F560E070E08DE795E02E
:103BF0000E94EB27FC0180810E94FB19EC0161E02F
:103C000070E08DE795E00E94EB27FC0180810E9427
:103C1000FB1924E0CC0FDD1F2A95E1F7C82BD92B27
:103C2000D0938405C0938305219711F40E943C0131
:103C30008091810590918205819708F4B5CD6EE958
:103C400071E08DE795E00E949427AECDDF91CF9192
:103C50001F910F91FF90EF90DF90CF90BF90AF90AA
:103C60009F908F907F906F905F904F903F902F909C
:103C700008956EE971E08DE795E00C947E278DE75D
:103C800095E00C9410271F920F920FB60F921124FB
:103C90002F933F934F935F936F937F938F939F9354
:103CA000AF93BF93EF93FF9380918C0587FF05C07F
:103CB00010928500109284001AC020918C05332741
:103CC00027FD309580918B0590E0281739077CF40B
:103CD00080918C05992787FD9095FC01EE0FFF1FC1
:103CE000E80FF91FE357FA4F808186FD15C08091D8
:103CF0008C058F5F80938C0520918C05332727FDE1
:103D0000309580918B0590E028173907BCF480919D
:103D10008C058C305CF112C080918C05992787FD51
:103D20009095FC01EE0FFF1FE80FF91FE357FA4FC4
:103D3000808160E08F730E941622D9CF8091840029
:103D400090918500049680349C4918F480E49CE9A5
:103D500005C080918400909185000496909389001D
:103D6000809388008FEF80938C0538C08091840009
:103D70009091850020918C05332727FD3095F9011E
:103D8000EE0FFF1FE20FF31FE357FA4F218132813D
:103D9000820F931F909389008093880080918C05F7
:103DA000992787FD9095FC01EE0FFF1FE80FF91F83
:103DB000E357FA4F808186FF11C080918C059927C7
:103DC00087FD9095FC01EE0FFF1FE80FF91FE357E9
:103DD000FA4F808161E08F730E941622FF91EF916C
:103DE000BF91AF919F918F917F916F915F914F9113
:103DF0003F912F910F900FBE0F901F90189520911B
:103E00008B052C30A0F431E0320F30938B05FC0190
:103E10002083822F90E0FC01EE0FFF1FE80FF91FB7
:103E2000E357FA4F88EB9BE09283818308952FEF4D
:103E3000FC0120830895DF92EF92FF920F931F936E
:103E4000CF93DF93EC01D62E7A01890188818C30E3
:103E500008F066C061E08D2D0E94DD218881A82FC9
:103E6000B0E0FD01EE0FFF1FEA0FFB1FE357FA4F13
:103E70002D2D2F739081907C922B908360E272E0C5
:103E80006E197F0977FF02C06D5F7F4F759567954B
:103E900075956795698340E659E0401B510B57FFC4
:103EA00002C04D5F5F4F55954795559547954A839D
:103EB0006CE00E94AD2B9CE0899FB001112420E0B2
:103EC00030E0A901460F571FFA01EE0FFF1FE40F64
:103ED000F51FE357FA4F908196FD16C02F5F3F4FB5
:103EE0002C30310571F781110FC01092800082E0F3
:103EF000809381001092850010928400B19A809185
:103F00006F00826080936F00888190E0FC01EE0F6B
:103F1000FF1FE80FF91FE357FA4F80818064808309
:103F20008881DF91CF911F910F91FF90EF90DF90EB
:103F3000089520E639E040E252E00C941B1FFC019A
:103F4000808190E0FC01EE0FFF1FE80FF91FE3579F
:103F5000FA4F80818F7B80830895FC0180818C30B3
:103F600070F5918128E830E0291B310997FD3395E0
:103F7000220F331F220F331F621773077CF09281C9
:103F800028E532E0291B310997FD3395220F331FB5
:103F9000220F331F621773070CF49B014FB7F8947D
:103FA00090E0FC01EE0FFF1FE80FF91FE357FA4FF7
:103FB00022503109220F331F328321834FBF0895CE
:103FC0004F925F926F927F92AF92BF92CF92DF92A9
:103FD000EF92FF920F931F93CF93DF93EC01603228
:103FE00082E078070CF040C077FD06C0653B7105A4
:103FF0002CF064EB70E002C060E070E0898128E89A
:1040000030E0281B310987FD3395220F331F220F23
:10401000331F5901CC24B7FCC094DC2C882777FDD2
:104020008095982F2A8148E552E0421B510927FDCF
:104030005395440F551F440F551F2A01662457FC02
:104040006094762C7F926F925F924F9214EBE12EE8
:10405000F12C00E010E020E030E0A9010E94C92628
:104060000F900F900F900F90CE01DF91CF911F9185
:104070000F91FF90EF90DF90CF90BF90AF907F9027
:104080006F905F904F900C94AD1FEF92FF920F9343
:104090001F93CF93DF93EC01842F1F821E8219821E
:1040A00018827B836A83198618861E861F86188A63
:1040B000198A4A8B5B8B3D8B2C8B1F8B0E8BF98E59
:1040C000E88E61E00E94DD2161E08C890E94DD21A3
:1040D00061E08E890E94DD2161E0888D0E94DD21F2
:1040E00084E090E09D838C83DF91CF911F910F91AD
:1040F000FF90EF9008951F920F920FB60F92112428
:104100002F933F938F939F93AF93BF938091B2056B
:104110009091B305A091B405B091B5053091B1056A
:1041200023E0230F2D3720F40196A11DB11D05C0FA
:1041300026E8230F0296A11DB11D2093B10580939F
:10414000B2059093B305A093B405B093B5058091E3
:10415000B6059091B705A091B805B091B905019643
:10416000A11DB11D8093B6059093B705A093B80526
:10417000B093B905BF91AF919F918F913F912F91CE
:104180000F900FBE0F901F9018953FB7F894809135
:10419000B6059091B705A091B805B091B90526B5BF
:1041A000A89B05C02F3F19F00196A11DB11D3FBF6F
:1041B0006627782F892F9A2F620F711D811D911DFF
:1041C00042E0660F771F881F991F4A95D1F708951F
:1041D000CF92DF92EF92FF92CF93DF936B017C013E
:1041E0000E94C520EB01C114D104E104F10489F05F
:1041F0000E94FD270E94C5206C1B7D0B683E73400A
:1042000090F381E0C81AD108E108F108C851DC4FE9
:10421000EACFDF91CF91FF90EF90DF90CF9008959C
:10422000019739F0880F991F880F991F02970197FE
:10423000F1F70895789484B5826084BD84B5816077
:1042400084BD85B5826085BD85B5816085BDEEE69E
:10425000F0E0808181608083E1E8F0E0108280817D
:1042600082608083808181608083E0E8F0E08081EB
:1042700081608083E1EBF0E0808184608083E0EB0B
:10428000F0E0808181608083EAE7F0E080818460F3
:10429000808380818260808380818160808380814F
:1042A000806880831092C10008951F93CF93DF939D
:1042B000182FEB0161E00E94DD21209711F460E0EE
:1042C00004C0CF3FD10539F461E0812FDF91CF9158
:1042D0001F910C941622E12FF0E0E251FF4FE49180
:1042E000E330F9F048F4E130B9F0E230A1F584B5FB
:1042F000806284BDC8BD34C0E730E9F0E83019F110
:10430000E43049F580918000806280938000D093F2
:104310008B00C0938A0024C084B5806884BDC7BD6B
:104320001FC080918000806880938000D0938900B6
:10433000C093880015C08091B00080688093B00061
:10434000C093B3000DC08091B00080628093B00034
:10435000C093B40005C0C038D1050CF0B5CFAFCFC5
:10436000DF91CF911F910895833081F028F481303F
:1043700099F08230A1F008958730A9F08830B9F023
:104380008430D1F4809180008F7D03C080918000C3
:104390008F7780938000089584B58F7702C084B5AD
:1043A0008F7D84BD08958091B0008F7703C0809188
:1043B000B0008F7D8093B0000895CF93DF9390E09D
:1043C000FC01EE5FFE4F2491FC01EA5EFE4F8491FA
:1043D000882349F190E0880F991FFC01E25CFE4FB1
:1043E000A591B4918C5C9E4FFC01C591D4919FB76F
:1043F000611108C0F8948C91209582238C93888158
:1044000082230AC0623051F4F8948C91322F309597
:1044100083238C938881822B888304C0F8948C91A9
:10442000822B8C939FBFDF91CF9108950F931F93A1
:10443000CF93DF931F92CDB7DEB7282F30E0F9017D
:10444000E251FF4F8491F901EE5FFE4F1491F901A3
:10445000EA5EFE4F04910023C9F0882321F06983AE
:104460000E94B4216981E02FF0E0EE0FFF1FEC5CA9
:10447000FE4FA591B4919FB7F8948C91611103C040
:104480001095812301C0812B8C939FBF0F90DF91EA
:10449000CF911F910F910895CF93DF93282F30E094
:1044A000F901E251FF4F8491F901EE5FFE4FD49183
:1044B000F901EA5EFE4FC491CC2391F081110E9474
:1044C000B421EC2FF0E0EE0FFF1FE65DFE4FA5914B
:1044D000B4912C912D2381E090E021F480E002C082
:1044E00080E090E0DF91CF910895FC01818D228DD5
:1044F00090E0805C9F4F821B91098F7399270895EC
:10450000FC01918D828D981731F0828DE80FF11D9D
:10451000858D90E008958FEF9FEF0895FC01918DB8
:10452000828D981761F0828DDF01A80FB11D5D9615
:104530008C91928D9F5F9F73928F90E008958FEF83
:104540009FEF089582E194E2892B49F080E090E0AA
:10455000892B29F00E94122481110C9400000895E7
:10456000FC01848DDF01A80FB11DA35ABF4F2C9110
:10457000848D90E001968F739927848FA689B789DF
:104580002C93A089B1898C9180648C93938D848DB8
:10459000981306C00288F389E02D80818F7D808387
:1045A0000895CF93DF93EC01888D8823C9F0EA89C1
:1045B000FB89808185FD05C0A889B9898C9186FD1C
:1045C0000FC00FB607FCF5CF808185FFF2CFA88919
:1045D000B9898C9185FFEDCFCE010E94B022E7CF43
:1045E000DF91CF910895CF92DF92FF920F931F93A7
:1045F000CF93DF931F92CDB7DEB76C01DC015B96E2
:104600009C915B975C968C915C97981307C0509631
:10461000ED91FC915197808185FD32C0F601038DAB
:1046200010E00F5F1F4F0F731127F02EF601848DDE
:10463000F81211C00FB607FCF9CFD6015096ED91D4
:10464000FC915197808185FFF1CFC60169830E945B
:10465000B0226981EBCF838DE80FF11DE35AFF4F44
:104660006083D6015B960C935B975296ED91FC911B
:10467000539780818062808381E058968C930DC02F
:10468000D6015696ED91FC91579760835096ED9127
:10469000FC91519780818064808381E090E00F904D
:1046A000DF91CF911F910F91FF90DF90CF900895F0
:1046B000BF92CF92DF92EF92FF92CF93DF93EC0104
:1046C0006A017B01B22EE889F98982E08083411575
:1046D00081EE580761057105A1F060E079E08DE396
:1046E00090E0A70196010E94CD2B2150310941098C
:1046F00051095695479537952795211580E138073B
:1047000098F0E889F989108260E874E88EE190E019
:10471000A70196010E94CD2B215031094109510971
:104720005695479537952795EC85FD853083EE8521
:10473000FF852083188EEC89FD89B082EA89FB8988
:10474000808180618083EA89FB89808188608083A1
:10475000EA89FB89808180688083EA89FB8980817E
:104760008F7D8083DF91CF91FF90EF90DF90CF908E
:10477000BF9008951F920F920FB60F9211242F939E
:104780008F939F93EF93FF93E091CA05F091CB0530
:104790008081E091D005F091D10582FD12C0908119
:1047A0008091D3058F5F8F732091D405821751F0CC
:1047B000E091D305F0E0E654FA4F958F8093D3054E
:1047C00001C08081FF91EF919F918F912F910F9068
:1047D0000FBE0F901F9018951F920F920FB60F9259
:1047E00011242F933F934F935F936F937F938F93F6
:1047F0009F93AF93BF93EF93FF938AEB95E00E9453
:10480000B022FF91EF91BF91AF919F918F917F91D6
:104810006F915F914F913F912F910F900FBE0F902D
:104820001F9018958AEB95E00E94752221E0892B54
:1048300009F420E0822F08951092BD051092BC0566
:1048400088EE93E0A0E0B0E08093BE059093BF05B2
:10485000A093C005B093C10587EA93E09093BB0590
:104860008093BA0585EC90E09093C7058093C605C8
:1048700084EC90E09093C9058093C80580EC90E0AB
:104880009093CB058093CA0581EC90E09093CD0581
:104890008093CC0582EC90E09093CF058093CE0579
:1048A00086EC90E09093D1058093D0051092D305CB
:1048B0001092D4051092D5051092D605089508954A
:1048C0000E941A210E945F240E94C20BC2EAD2E217
:1048D0000E94C40B2097E1F30E94A222F9CFCF924D
:1048E000DF92EF92FF920F931F93CF93DF936C01B0
:1048F0007A01EB01E60EF71E00E010E0CE15DF05B1
:1049000061F06991D601ED91FC910190F081E02D6B
:10491000C6010995080F191FF1CFC801DF91CF918A
:104920001F910F91FF90EF90DF90CF900895611548
:10493000710581F0DB010D900020E9F7AD014150D8
:104940005109461B570BDC01ED91FC910280F3816C
:10495000E02D099480E090E008950C949724DC0108
:10496000ED91FC910190F081E02D09940F931F933C
:10497000CF93DF93EC016DE00E94AF248C016AE0DD
:10498000CE010E94AF24800F911FDF91CF911F9124
:104990000F9108950F931F93CF93DF93EC010E9423
:1049A00097248C01CE010E94B624800F911FDF91C5
:1049B000CF911F910F9108958F929F92AF92BF92C6
:1049C000CF92DF92EF92FF920F931F93CF93DF93DB
:1049D000CDB7DEB7A1970FB6F894DEBF0FBECDBF3F
:1049E0007C01C42EE52FCB01D22E19A221E02D157A
:1049F00010F02AE0D22E8E010F5D1F4F8D2C912CCE
:104A0000A12CB12C6C2D7E2FA50194010E94CD2BE1
:104A10008C2DD29E80191124015011098A3014F472
:104A2000805D01C0895CF801808321153105410555
:104A3000510521F0C22EE32FCA01E4CFB801C7010E
:104A40000E949724A1960FB6F894DEBF0FBECDBF8B
:104A5000DF91CF911F910F91FF90EF90DF90CF905A
:104A6000BF90AF909F908F900895CF92DF92EF927A
:104A7000FF920F931F93CF93DF93EC016A017B01A9
:104A80002115310579F4E881F9810190F081E02D5B
:104A9000642FDF91CF911F910F91FF90EF90DF90E6
:104AA000CF9009942A303105E9F477FF1AC06DE2FE
:104AB0000E94AF248C0144275527BA014C195D0987
:104AC0006E097F092AE0CE010E94DC24800F911F2D
:104AD000DF91CF911F910F91FF90EF90DF90CF90DA
:104AE00008952AE0B701A601CE01DF91CF911F9171
:104AF0000F91FF90EF90DF90CF900C94DC249A01FF
:104B0000AB01662757FD6095762F0C9435250F93E2
:104B10001F93CF93DF93EC019A01AB01662757FDFA
:104B20006095762F0E9435258C01CE010E94B62417
:104B3000800F911FDF91CF911F910F9108950F93D7
:104B40001F93CF93DF93EC010E9435258C01CE019A
:104B50000E94B624800F911FDF91CF911F910F917A
:104B600008952115310541F4DC01ED91FC9101908E
:104B7000F081E02D642F09940C94DC249A01462FD7
:104B800050E060E070E00C94B1250F931F93CF9339
:104B9000DF93EC019A01462F50E060E070E00E9444
:104BA000B1258C01CE010E94B624800F911FDF91A8
:104BB000CF911F910F9108954F925F926F927F92C4
:104BC0008F929F92AF92BF92CF92DF92EF92FF921D
:104BD0000F931F93CF93DF93EC016A017B01B22EF9
:104BE0009A01AB01C701B6010E94812B882319F0FD
:104BF00063EB73E027C026013701E89477F82FEFC5
:104C00003FEF4FE75FE7C301B2010E94812B8111A3
:104C10000DC02FEF3FEF4FE75FE7C301B2010E94E6
:104C2000D82818161CF467EB73E00CC02FEF3FEF89
:104C30004FE75FE4C701B6010E94C82A1816ACF41A
:104C40006BEB73E0CE01DF91CF911F910F91FF903D
:104C5000EF90DF90CF90BF90AF909F908F907F901C
:104C60006F905F904F900C9497242FEF3FEF4FE79A
:104C70005FECC701B6010E94D82887FDE1CF20E094
:104C800030E0A901C701B6010E94D82887FF0AC0F9
:104C90006DE2CE010E94AF248C01F7FAF094F7F890
:104CA000F09402C000E010E0A12C60E070E080E031
:104CB0009FE3AB1441F020E030E040E251E40E9479
:104CC000DF28A394F6CF9B01AC01C701B6010E9477
:104CD000FF276B017C010E944C292B013C010E94A3
:104CE00078299B01AC01C701B6010E94FE276B0128
:104CF0007C012AE0B301A201CE010E94DC24080F4E
:104D0000191FBB2039F06FEB73E0CE010E9497248E
:104D1000080F191F7B2C772041F120E030E040E2A2
:104D200051E4C701B6010E94D32A6B017C010E94A5
:104D300047294B01AA2497FCA094BA2C2AE030E022
:104D4000B501A401CE010E943525080F191FC50128
:104D5000B4010E947A299B01AC01C701B6010E94EF
:104D6000FE276B017C017A94D6CFC801DF91CF91E9
:104D70001F910F91FF90EF90DF90CF90BF90AF9079
:104D80009F908F907F906F905F904F9008950C94BC
:104D9000DC254F925F926F927F92AF92BF92CF923B
:104DA000DF92EF92FF920F931F93CF93DF93CDB7D4
:104DB000DEB729013A01621B730B840B950B29891D
:104DC0003A894B895C892A193B094C095D09298B71
:104DD0003A8B4B8B5C8B9B01AC0169897A898B89FF
:104DE0009C890E949D2BE418F50806091709A80163
:104DF00097010E94EF2B2A0D3B1D4C1D5D1DCA0122
:104E0000B901DF91CF911F910F91FF90EF90DF904B
:104E1000CF90BF90AF907F906F905F904F9008952C
:104E2000FC01808191810C94DA2CCF93DF93EC010B
:104E300088819981009711F00E94DA2C19821882DA
:104E40001D821C821B821A82DF91CF9108950F93DD
:104E50001F93CF93DF93EC018B016F5F7F4F8881AE
:104E600099810E94692D009731F0998388831B8373
:104E70000A8381E001C080E0DF91CF911F910F9103
:104E80000895CF93DF93EC0188819981892B29F0D4
:104E90008A819B818617970760F4CE010E9427279D
:104EA000882341F08C819D81892B19F4E881F98157
:104EB000108281E0DF91CF910895EF92FF920F93DE
:104EC0001F93CF93DF93EC017B018A01BA010E940B
:104ED0004127811104C0CE010E94152707C01D8300
:104EE0000C83B701888199810E94BF2FCE01DF9189
:104EF000CF911F910F91FF90EF900895FC011182C7
:104F0000108213821282158214826115710559F084
:104F1000FB0101900020E9F7AF0141505109461B08
:104F2000570B0C945D270895CF93DF93EC01611527
:104F3000710561F0FB0101900020E9F7AF014150DC
:104F40005109461B570B0E945D2702C00E9415277E
:104F5000CE01DF91CF910895EF92FF920F931F93AF
:104F6000CF93DF93EC017B010C811D8161157105ED
:104F700011F480E016C04115510591F0040F151F82
:104F8000B8010E9441278823A1F3288139818C81AF
:104F90009D81B701820F931F0E94BF2F1D830C8339
:104FA00081E0DF91CF911F910F91FF90EF900895D5
:104FB000CF93DF9300D0CDB7DEB769831A8241E08B
:104FC00050E0BE016F5F7F4F0E94AC270F900F90A3
:104FD000DF91CF910895FC0184819581681779074D
:104FE00020F480819181009729F41092570687E57B
:104FF00096E00895860F971F089508955058BB278F
:10500000AA270ED063C22CD230F031D220F031F476
:105010009F3F11F41EF4FCC10EF4E095E7FBC9C1FB
:10502000E92F76D280F3BA176207730784079507D2
:1050300018F071F49EF5A5C20EF4E0950B2EBA2F70
:10504000A02D0B01B90190010C01CA01A00111248E
:10505000FF27591B99F0593F50F4503E68F11A163A
:10506000F040A22F232F342F4427585FF3CF4695CB
:1050700037952795A795F0405395C9F77EF41F16ED
:10508000BA0B620B730B840BBAF09150A1F0FF0FB7
:10509000BB1F661F771F881FC2F70EC0BA0F621FA3
:1050A000731F841F48F4879577956795B795F79593
:1050B0009E3F08F0B3CF9395880F08F09927EE0F25
:1050C000979587950895CCD158F080E891E009F440
:1050D0009EEFCDD128F040E851E059F45EEF09C0D1
:1050E00097C14FC2E92FE07813D268F3092E052A41
:1050F000C1F3261737074807590738F00E2E07F86F
:10510000E02569F0E025E0640AC0EF6307F8009449
:1051100007FADB01B9019D01DC01CA01AD01EF9382
:105120005DD0D4D10AD05F91552331F02BED3FE013
:1051300049E450FD49EC63CF0895DF93DD27B92F93
:10514000BF7740E85FE31616170648075B0710F4C1
:10515000D92F22D29F938F937F936F93CFD2E2EA7E
:10516000F0E059D1B3D12F913F914F915F9127D268
:10517000DD2349F09058A2EA2AED3FE049EC5FE3D5
:10518000D0785D274DDFDF91A1C1E4D180F09F375A
:1051900040F491110EF4F6C160E070E080E89FE306
:1051A000089526F01B16611D711D811D08C122C1C5
:1051B000DCD008F481E0089562D1E39598C10CD069
:1051C00085C155D140F04CD130F021F45F3F19F04A
:1051D000F0C05111D7C11CC19BD198F39923C9F3D9
:1051E0005523B1F3951B550BBB27AA2762177307ED
:1051F000840738F09F5F5F4F220F331F441FAA1FA1
:10520000A9F333D00E2E3AF0E0E830D09150504060
:10521000E695001CCAF729D0FE2F27D0660F771F0E
:10522000881FBB1F261737074807AB07B0E809F0F0
:10523000BB0B802DBF01FF2793585F4F2AF09E3F85
:10524000510568F0B6C09EC15F3FECF3983EDCF3B9
:10525000869577956795B795F7959F5FC9F7880FFE
:10526000911D9695879597F90895E1E0660F771F50
:10527000881FBB1F621773078407BA0720F0621BE1
:10528000730B840BBA0BEE1F88F7E095089504D0DA
:105290006894B11177C1089543D188F09F5790F079
:1052A000B92F9927B751A0F0D1F0660F771F881F4B
:1052B000991F1AF0BA95C9F712C0B13081F061D1C7
:1052C000B1E008955EC1672F782F8827B85F39F065
:1052D000B93FCCF3869577956795B395D9F73EF4AA
:1052E00090958095709561957F4F8F4F9F4F089552
:1052F000E89409C097FB3EF4909580957095619570
:105300007F4F8F4F9F4F9923A9F0F92F96E9BB2725
:105310009395F695879577956795B795F111F8CFA1
:10532000FAF4BB0F11F460FF1BC06F5F7F4F8F4F0C
:105330009F4F16C0882311F096E911C0772321F002
:105340009EE8872F762F05C0662371F096E8862F9A
:1053500070E060E02AF09A95660F771F881FDAF7F1
:10536000880F9695879597F90895990F0008550F1E
:10537000AA0BE0E8FEEF16161706E807F907C0F0DB
:1053800012161306E407F50798F0621B730B840BE3
:10539000950B39F40A2661F0232B242B252B21F4BD
:1053A00008950A2609F4A140A6958FEF811D811D5D
:1053B000089597F99F6780E870E060E0089588237A
:1053C00071F4772321F09850872B762F07C066233E
:1053D00011F499270DC09051862B70E060E02AF0FF
:1053E0009A95660F771F881FDAF7880F969587952D
:1053F00097F908959F3F31F0915020F48795779564
:105400006795B795880F911D9695879597F908959B
:105410009FEF80EC0895DF93CF931F930F93FF923C
:10542000EF92DF927B018C01689405C0DA2EEF01C8
:10543000C6D0FE01E894A5912591359145915591ED
:10544000AEF3EF01EDDDFE019701A801DA9479F7E3
:10545000DF90EF90FF900F911F91CF91DF91089512
:1054600000240A9416161706180609060895002443
:105470000A9412161306140605060895C9CF50D0D3
:10548000E8F3E894E0E0BB279F57F0F02AED3FE017
:1054900049EC06C0EE0FBB0F661F771F881F28F070
:1054A000B23A62077307840728F0B25A620B730B93
:1054B000840BE3959A9572F7803830F49A95BB0F78
:1054C000661F771F881FD2F7904896CF092E039446
:1054D000000C11F4882352F0BB0F40F4BF2B11F4E1
:1054E00060FF04C06F5F7F4F8F4F9F4F0895EF9312
:1054F000E0FF06C0A2EA2AED3FE049EC5FEB90DD59
:10550000E5DF0F90039401FC9058EFECF0E004C14C
:1055100057FD9058440F551F59F05F3F71F0479564
:10552000880F97FB991F61F09F3F79F08795089549
:10553000121613061406551FF2CF4695F1DF08C068
:10554000161617061806991FF1CF86957105610585
:1055500008940895E5DFA0F0BEE7B91788F4BB27EB
:105560009F3860F41616B11D672F782F8827985F33
:10557000F7CF869577956795B11D93959639C8F3C2
:105580000895E894BB2766277727CB0197F90895FC
:10559000ECDE08F48FEF08959B01AC0160E070E051
:1055A00080E89FE30CCE0BD091CF5ADF28F05FDF6D
:1055B00018F0952309F0FDCE2BCF1124E3CFA8DFFF
:1055C000A0F3959FD1F3950F50E0551F629FF00116
:1055D000729FBB27F00DB11D639FAA27F00DB11D6F
:1055E000AA1F649F6627B00DA11D661F829F2227F8
:1055F000B00DA11D621F739FB00DA11D621F839F7F
:10560000A00D611D221F749F3327A00D611D231F54
:10561000849F600D211D822F762F6A2F11249F57A2
:1056200050408AF0E1F088234AF0EE0FFF1FBB1FC5
:10563000661F771F881F91505040A9F79E3F510564
:1056400070F0B7CE9FCF5F3FECF3983EDCF38695CA
:1056500077956795B795F795E7959F5FC1F7FE2B0F
:10566000880F911D9695879597F908959F9307DF69
:105670000F9007FCEE5F3BCF11F40EF4C9CEBACE0B
:105680004FDFD0F39923D9F3CEF39F57550B87FF04
:105690003CD00024A0E640EA9001805856959795AA
:1056A00028F4805C660F771F881F20F026173707C5
:1056B000480730F4621B730B840B202931294A2BD5
:1056C000A69517940794202531254A2758F7660F89
:1056D000771F881F20F026173707480730F4620B22
:1056E000730B840B200D311D411DA09581F7B9016D
:1056F000842F9158880F9695879508959B01AC014A
:1057000052CF33DE880B990B089591505040660FAD
:10571000771F881FD2F708959F938F937F936F937E
:10572000FF93EF939B01AC013EDFEF91FF9173DE9E
:105730002F913F914F915F9136CFDB018F939F93D4
:105740000E94142CBF91AF91A29F800D911DA39F29
:10575000900DB29F900D11240895991B79E004C01B
:10576000991F961708F0961B881F7A95C9F78095A0
:10577000089597FB072E16F4009407D077FD09D003
:105780000E941F2C07FC05D03EF4909581959F4FF9
:105790000895709561957F4F0895A1E21A2EAA1B76
:1057A000BB1BFD010DC0AA1FBB1FEE1FFF1FA217D1
:1057B000B307E407F50720F0A21BB30BE40BF50BCE
:1057C000661F771F881F991F1A9469F76095709557
:1057D000809590959B01AC01BD01CF010895052EE8
:1057E00097FB1EF400940E94062C57FD07D00E94E0
:1057F000CD2B07FC03D04EF40C94062C509540950D
:10580000309521953F4F4F4F5F4F0895909580956C
:10581000709561957F4F8F4F9F4F0895EE0FFF1F3B
:105820000590F491E02D09940E94332CA59F900DD2
:10583000B49F900DA49F800D911D11240895AA1B63
:10584000BB1B51E107C0AA1FBB1FA617B70710F06B
:10585000A61BB70B881F991F5A95A9F7809590959D
:10586000BC01CD010895A29FB001B39FC001A39FC9
:10587000700D811D1124911DB29F700D811D112489
:10588000911D0895CF93DF938230910510F482E04B
:1058900090E0E0915A06F0915B0620E030E0A0E055
:1058A000B0E0309739F14081518148175907B8F07D
:1058B0004817590771F482819381109729F0139644
:1058C0009C938E9312972CC090935B0680935A06FC
:1058D00027C02115310531F04217530718F0A901EF
:1058E000DB0101C0EF019A01BD01DF010280F381FC
:1058F000E02DD7CF21153105F9F0281B390B2430C5
:10590000310580F48A819B816115710521F0FB01CD
:105910009383828304C090935B0680935A06FE01B2
:10592000329644C0FE01E20FF31F819391932250FF
:105930003109398328833AC020915806309159069D
:10594000232B41F420910201309103013093590639
:105950002093580620910001309101012115310555
:1059600041F42DB73EB74091040150910501241B2D
:10597000350BE0915806F0915906E217F307A0F4B1
:105980002E1B3F0B2817390778F0AC014E5F5F4F95
:105990002417350748F04E0F5F1F50935906409368
:1059A00058068193919302C0E0E0F0E0CF01DF91CF
:1059B000CF910895CF93DF93009709F487C0FC013E
:1059C000329713821282C0915A06D0915B062097BB
:1059D00081F420813181280F391F809158069091E0
:1059E00059068217930779F5F0935906E093580604
:1059F0006DC0DE0120E030E0AE17BF0750F4129614
:105A00004D915C9113979D014115510509F1DA0102
:105A1000F3CFB383A28340815181840F951F8A17EE
:105A20009B0771F48D919C911197840F951F02969D
:105A30009183808312968D919C9113979383828397
:105A40002115310529F4F0935B06E0935A063EC018
:105A5000D9011396FC93EE9312974D915D91A40F8B
:105A6000B51FEA17FB0779F480819181840F951F98
:105A70000296D90111969C938E93828193811396FD
:105A80009C938E931297E0E0F0E08A819B810097CF
:105A900019F0FE01EC01F9CFCE010296288139817F
:105AA000820F931F20915806309159062817390705
:105AB00069F4309729F410925B0610925A0602C0DE
:105AC00013821282D0935906C0935806DF91CF916A
:105AD0000895A0E0B0E0EFE6FDE20C94E32FEC01C6
